:020000020000FC
:100000001AC018C017C016C015C014C013C012C043
:1000100011C010C00FC00EC00DC00CC00BC00AC074
:1000200009C092C007C006C005C004C003C002C01A
:1000300001C000C0189508ED04BF00E10093610005
:1000400000E400B9E0ECF1E004E0018304E00087A3
:1000500000E0078308E8068309E8058303E00487D6
:1000600000E0038708E8028701E8018701E00083D8
:10007000E0E0FAE00EE404AF00E005AF04E602AF12
:1000800000E003AF04E600AF00E001AF08EC06AB10
:1000900000E007AB00E0038303E0018300E0028798
:1000A00001E0008304E10093A000E0E7F6E0E0E077
:1000B000F6E000E0068B01E0028701E0018707E03F
:1000C000068300E0058300E0048300E0038302E48C
:1000D000028300E0018305E0008306E000938A01CB
:1000E00001E00093930100E40093803F0EE1009350
:1000F000843F08E20093853F04E60093883F08E0D0
:1001000000938C3F08E000938D3F08E6F02E789432
:1001100090FBF6F79E7FE0E9FFE36E2D72E196D04B
:10012000E1E9FFE362E19DD01695079516950795E5
:100130001695079516950795C8E8DFE354D0112367
:100140000AF41127D12EE4CF3FB60F93882319F07C
:10015000813069F01CC002E000930606E0901006B2
:100160008395FA9419F408E6F02E916039C007E0FF
:1001700000930606009110060F921F92D09E000C6D
:10018000111C1092803F1F900F90839529C003E0AF
:10019000009306060091100688271F932F930F9255
:1001A0001F92CF93DF93C0E8DFE31DD0112312F439
:1001B00000271127000F111F1E3B08F01EEBC0E0A7
:1001C000DAE004E61695011F0AAF2BAE04E6011B28
:1001D00008AF29AEDF91CF911F900F902F911F9103
:1001E0000F913FBE18952881201B10F41AF020E8CB
:1001F0000AF42FE70E811F810A801B800019110964
:1002000033F412F40FEF1FE712F000E010E81F9331
:100210001C8121030A821B821F91000D111D33F4E2
:1002200012F40FEF1FE712F000E010E81F931D819A
:1002300021031F91000D111D33F412F40FEF1FE77E
:1002400012F000E010E80E831F83089500810395EB
:10025000071708F000270193E00F0027F01F6083C5
:1002600008952FEF3327002711274191421708F4F3
:10027000242F431708F0342F040F4427141F6A95C6
:0E028000A1F7021B2227120B031B120B08957D
:00000001FF
